:1000000012C019C018C017C016C015C014C013C044
:1000100012C011C010C00FC00EC00DC00CC00BC06C
:100020000AC009C008C011241FBECFE5D4E0DEBF5E
:10003000CDBF53D0A0C0E4CF1BB810BC88E089B9B5
:1000400088E18AB986E880BD08955D9BFECF8CB9B2
:100050000895CF93DF93482F64E65AD0E82F282FD6
:1000600030E08CE99FEF289FE001299FD00D389F59
:10007000D00D1124CE01840F911D6AE070E054D0A0
:100080005D9BFECFE05DECB95D9BFECF605D6CB922
:1000900060535D9BFECF405D4C0F86EF9FEF689FE6
:1000A000802D1124840F8CB9DF91CF9108955F9B2F
:1000B000FECF8CB1089588EA91E60197F1F7089593
:1000C000FC0104C05D9BFECF8CB9319680818823F2
:1000D000C9F784E690E0EFDF08958FE087BB18BA98
:1000E0001BB810BC88E089B988E18AB986E880BD70
:1000F00088EA91E60197F1F79FE05F9BFECF8CB114
:10010000813411F498BBF9CF8234B9F718BAF5CF1E
:10011000991B79E004C0991F961708F0961B881F59
:100120007A95C9F78095089597FB092E07260AD07E
:1001300077FD04D00CD006D000201AF4709561959C
:100140007F4F0895F6F7909581959F4F0895AA1BCC
:10015000BB1B51E107C0AA1FBB1FA617B70710F0B2
:10016000A61BB70B881F991F5A95A9F780959095E4
:0A017000BC01CD010895F894FFCF03
:00000001FF
