:1000000012C02CC02BC02AC029C028C027C026C0BF
:1000100025C024C023C022C021C020C01FC01EC0D4
:100020001DC01CC01BC011241FBECFE5D4E0DEBF25
:10003000CDBF10E0A0E6B0E0E6E6F2E002C0059039
:100040000D92AE3FB107D9F711E0AEEFB0E001C0BD
:100050001D92A331B107E1F758D003C1D1CF1BB82E
:1000600010BC88E089B988E18AB986E880BD089526
:100070005D9BFECF8CB90895CF93DF93482F64E644
:10008000BDD0E82F282F30E08CE99FEF289FE001BA
:10009000299FD00D389FD00D1124CE01840F911DC2
:1000A0006AE070E0B7D05D9BFECFE05DECB95D9B90
:1000B000FECF605D6CB960535D9BFECF405D4C0F21
:1000C00086EF9FEF689F802D1124840F8CB9DF91FC
:1000D000CF9108955F9BFECF8CB1089588EE93E099
:1000E0002CE231E0F9013197F1F70197D9F7089542
:1000F000FC0104C05D9BFECF8CB9319680818823C2
:10010000C9F784E690E0EADF0895CF93DF938FEF9D
:1001100087BB88BB1BB810BC88E089B988E18AB965
:1001200086E880BD80E197E22CE231E0F901319769
:10013000F1F70197D9F780E690E0DADF80E395E701
:100140002CE231E0F9013197F1F70197D9F78EE60A
:1001500090E0CEDF80E593EC2CE231E0F9013197BD
:10016000F1F70197D9F780E593EC2CE231E0F90142
:100170003197F1F70197D9F780E593EC2CE231E064
:10018000F9013197F1F70197D9F7CCE2D1E08BE88B
:1001900090E0AEDF80E395E7FE013197F1F701973C
:1001A000D9F780E29EE4FE013197F1F70197D9F784
:1001B00087EB90E09DDF80E197E2FE013197F1F758
:1001C0000197D9F787EC90E093DF80E197E2FE0199
:1001D0003197F1F70197D9F780EF90E089DF80E35D
:1001E00095E7FE013197F1F70197D9F780E197E2A2
:1001F000FE013197F1F70197D9F7C9CF991B79E043
:1002000004C0991F961708F0961B881F7A95C9F7A6
:100210008095089597FB092E07260AD077FD04D014
:100220000CD006D000201AF4709561957F4F089588
:10023000F6F7909581959F4F0895AA1BBB1B51E13E
:1002400007C0AA1FBB1FA617B70710F0A61BB70B46
:10025000881F991F5A95A9F780959095BC01CD01EB
:060260000895F894FFCFA1
:1002660041542B43574D4F44453D330D0A004154ED
:100276002B43574A41503D226E6578222C226173EA
:10028600646667686A6B6C220D0A0041542B434909
:100296005053544152543D22544350222C226170F3
:1002A600692E7468696E67737065616B2E636F6D16
:1002B600222C38300D0A0041542B43495053454EE9
:1002C600443D34320D0A00474554202F6368616E61
:1002D6006E656C732F3431303231382F6669656C38
:1002E60064732F312F6C6173742E7478740D0A0049
:0E02F60041542B434950434C4F53450D0A00D1
:00000001FF
