:1000000012C024C023C022C021C020C01FC01EC0F7
:100010001DC01CC01BC01AC019C018C017C016C014
:1000200015C014C013C011241FBECFE5D4E0DEBF3D
:10003000CDBF10E0A0E6B0E0E2E5F2E002C005903E
:100040000D92AE36B107D9F7C0D001C1D9CF92B366
:10005000282F207F9F70292B22BB18BA30E238BB93
:1000600025E0922F9A95F1F718BAE0E2F3E0319784
:10007000F1F792B38295807F9F70982B92BB38BB2B
:100080002A95F1F718BA80E49FE10197F1F70895F6
:1000900092B3282F207F9F70292B22BB40E148BBC1
:1000A00060E368BB55E0952F9A95F1F748BB20E4D3
:1000B0003FE1F9013197F1F7E0E2F3E03197F1F731
:1000C00092B38295807F9F70982B92BB68BB5A95A4
:1000D000F1F748BBC9010197F1F708958FEF81BB94
:1000E00080E387BB88EC90E020E931E0F9013197AB
:1000F000F1F70197D9F782E0AADF88E2A8DF8CE068
:10010000A6DF86E0A4DF81E0A2DF80E49FE1019723
:10011000F1F70895CF93DF93EC0101C0B9DF899126
:100120008823E1F7DF91CF910895CF93DF93EA0120
:10013000882331F4603160F46F70862F806807C0C7
:10014000813031F4603120F46F70862F806C7FDF56
:10015000CE01E0DFDF91CF910895EF92FF920F93F0
:100160001F93182F64E640D0482F282F30E08CE9E9
:100170009FEF289F7001299FF00C389FF00C1124ED
:10018000C701810F911D6AE070E03AD0062F842FDD
:10019000805D7EDF802F805D7BDF105D1E0D86EF32
:1001A0009FEF089F002D1124802F810F71DF1F9179
:1001B0000F91FF90EF90089581E049DF80E49FE187
:1001C0000197F1F780E843DF089588DFF5DF80E6E7
:1001D00090E0A0DF80EC3BDF87E3BFDF86EC37DF1A
:1001E00088E690E097DF0895991B79E004C0991F95
:1001F000961708F0961B881F7A95C9F78095089581
:1002000097FB092E07260AD077FD04D00CD006D024
:1002100000201AF4709561957F4F0895F6F7909538
:1002200081959F4F0895AA1BBB1B51E107C0AA1FD0
:10023000BB1FA617B70710F0A61BB70B881F991F87
:100240005A95A9F780959095BC01CD010895F89431
:02025000FFCFDE
:0E0252006933696E6479610074656368000049
:00000001FF
