:1000000012C024C023C022C021C020C01FC01EC0F7
:100010001DC01CC01BC01AC019C018C017C016C014
:1000200015C014C013C011241FBECFE5D4E0DEBF3D
:10003000CDBF10E0A0E6B0E0E4ECF1E002C0059036
:100040000D92AA36B107D9F758D0BAC0D9CF1BB88C
:1000500010BC88E089B988E18AB986E880BD089536
:100060005D9BFECF8CB90895CF93DF93482F64E654
:1000700074D0E82F282F30E08CE99FEF289FE00113
:10008000299FD00D389FD00D1124CE01840F911DD2
:100090006AE070E06ED05D9BFECFE05DECB95D9BE9
:1000A000FECF605D6CB960535D9BFECF405D4C0F31
:1000B00086EF9FEF689F802D1124840F8CB9DF910C
:1000C000CF9108955F9BFECF8CB1089588EE93E0A9
:1000D00020E931E0F9013197F1F70197D9F7089557
:1000E000FC0104C05D9BFECF8CB9319680818823D2
:1000F000C9F784E690E0EADF08950F931F93CF934A
:10010000DF938FE087BB1BB810BC88E089B988E11A
:100110008AB986E880BD88EE93E020E931E0F901F4
:100120003197F1F70197D9F781E088BB01E41AE034
:10013000C0E9D1E080E690E0D3DF5D9BFECF0CB953
:1001400089E392DF5D9BFECF1CB980E197E2FE015F
:100150003197F1F70197D9F7EDCF991B79E004C0FA
:10016000991F961708F0961B881F7A95C9F78095F6
:10017000089597FB092E07260AD077FD04D00CD0EE
:1001800006D000201AF4709561957F4F0895F6F718
:10019000909581959F4F0895AA1BBB1B51E107C005
:1001A000AA1FBB1FA617B70710F0A61BB70B881F07
:1001B000991F5A95A9F780959095BC01CD01089596
:0401C000F894FFCFE1
:0A01C40068692068656C6C6F00002C
:00000001FF
