:1000000012C02CC02BC02AC029C028C027C026C0BF
:1000100025C024C023C022C021C020C01FC01EC0D4
:100020001DC01CC01BC011241FBECFE5D4E0DEBF25
:10003000CDBF11E0A0E6B0E0E6E9F2E002C0059035
:100040000D92A830B107D9F711E0A8E0B1E001C0E6
:100050001D92AC30B107E1F767D01BC1D1CF1BB8FF
:1000600010BC88E089B988E18AB986E880BD089526
:100070005D9BFECF8CB90895CF93DF93482F64E644
:10008000D5D0E82F282F30E08CE99FEF289FE001A2
:10009000299FD00D389FD00D1124CE01840F911DC2
:1000A0006AE070E0CFD05D9BFECFE05DECB95D9B78
:1000B000FECF605D6CB960535D9BFECF405D4C0F21
:1000C00086EF9FEF689F802D1124840F8CB9DF91FC
:1000D000CF9108955F9BFECF8CB1089588EE93E099
:1000E00020E931E0F9013197F1F70197D9F7089547
:1000F000FC0104C05D9BFECF8CB9319680818823C2
:10010000C9F784E690E0EADF089586E886B90895A5
:1001100090E697B997B1982B97B9369A80EA9FE005
:100120000197F1F785B10895EF92FF920F931F9316
:10013000CF93DF938FEF87BB88BB1BB810BC88E0E1
:1001400089B988E18AB986E880BD86B980E197E2FD
:1001500020E931E0F9013197F1F70197D9F780E60D
:1001600090E0C6DF80E395E720E931E0F9013197BF
:10017000F1F70197D9F78EE690E0BADF80E593ECCE
:1001800020E931E0F9013197F1F70197D9F780E5DE
:1001900093EC20E931E0F9013197F1F70197D9F7B4
:1001A00080E593EC20E931E0F9013197F1F701970F
:1001B000D9F700E680EAE82E8FE0F82EC0E9D1E01A
:1001C00007B987B187B9369AC7010197F1F715B119
:1001D0008EE890E08DDF80E395E7FE013197F1F73F
:1001E0000197D9F78AEB90E083DF88EE93E0FE0178
:1001F0003197F1F70197D9F78AEC90E079DF812FF9
:100200003BDF87EF90E074DF88EE93E0FE013197EB
:10021000F1F70197D9F78AEF90E06ADF80E69AEE6E
:10022000FE013197F1F70197D9F7CACF991B79E011
:1002300004C0991F961708F0961B881F7A95C9F776
:100240008095089597FB092E07260AD077FD04D0E4
:100250000CD006D000201AF4709561957F4F089558
:10026000F6F7909581959F4F0895AA1BBB1B51E10E
:1002700007C0AA1FBB1FA617B70710F0A61BB70B16
:10028000881F991F5A95A9F780959095BC01CD01BB
:060290000895F894FFCF71
:1002960041542B43574D4F44453D330D0A004154BD
:1002A6002B43574A41503D22686F7473706F742216
:1002B6002C2270617373776F7264220D0A004154A9
:1002C6002B43495053544152543D22544350222CFF
:1002D600226170692E7468696E67737065616B2E32
:1002E600636F6D222C38300D0A0041542B43495060
:1002F60053454E443D35310D0A00474554202F7570
:1003060070646174653F6170695F6B65793D484EE5
:10031600493853514359385455393730544F266666
:1003260069656C64313D000D0A0041542B43495008
:08033600434C4F53450D0A0032
:00000001FF
