:1000000012C024C023C022C021C020C01FC01EC0F7
:100010001DC01CC01BC01AC019C018C017C016C014
:1000200015C014C013C011241FBECFE5D4E0DEBF3D
:10003000CDBF11E0A0E6B0E0E0E1F2E002C0059043
:100040000D92A630B107D9F758D0E0C0D9CF1BB870
:1000500010BC88E089B988E18AB986E880BD089536
:100060005D9BFECF8CB90895CF93DF93482F64E654
:100070009AD0E82F282F30E08CE99FEF289FE001ED
:10008000299FD00D389FD00D1124CE01840F911DD2
:100090006AE070E094D05D9BFECFE05DECB95D9BC3
:1000A000FECF605D6CB960535D9BFECF405D4C0F31
:1000B00086EF9FEF689F802D1124840F8CB9DF910C
:1000C000CF9108955F9BFECF8CB1089588EE93E0A9
:1000D00020E931E0F9013197F1F70197D9F7089557
:1000E000FC0104C05D9BFECF8CB9319680818823D2
:1000F000C9F784E690E0EADF0895CF93DF931BB859
:1001000010BC88E089B988E18AB986E880BD80E1C1
:1001100097E220E931E0F9013197F1F70197D9F73A
:1001200080E690E0DDDF80E395E720E931E0F9014A
:100130003197F1F70197D9F78EE690E0D1DF8FEF95
:100140009FEF20E931E0F9013197F1F70197D9F7F5
:10015000C0E9D1E08BE890E0C3DF80E593ECFE01DD
:100160003197F1F70197D9F787EB90E0B9DF88E88D
:1001700093E1FE013197F1F70197D9F787EC90E011
:10018000AFDF88EE93E0FE013197F1F70197D9F7E1
:1001900087EF90E0A5DF80E69AEEFE013197F1F758
:1001A0000197D9F7D7CF991B79E004C0991F96170B
:1001B00008F0961B881F7A95C9F78095089597FBDC
:1001C000092E07260AD077FD04D00CD006D00020D7
:1001D0001AF4709561957F4F0895F6F79095819583
:1001E0009F4F0895AA1BBB1B51E107C0AA1FBB1F4D
:1001F000A617B70710F0A61BB70B881F991F5A95B3
:10020000A9F780959095BC01CD010895F894FFCF92
:1002100041542B43574D4F44453D330D0A00415443
:100220002B43574A41503D226E6578222C22617340
:10023000646667686A6B6C220D0A0041542B43495F
:100240005053544152543D22544350222C22617049
:10025000692E7468696E67737065616B2E636F6D6C
:10026000222C38300D0A0041542B43495053454E3F
:10027000443D34390D0A00474554202F75706461A0
:1002800074653F6170695F6B65793D455238594FC0
:1002900048443133355255314A374F266669656CCB
:1002A00064313D380D0A0041542B434950434C4FB3
:0602B00053450D0A000099
:00000001FF
